:020000040800F2
:100000000000022091160008A94000082D410008B8
:1000100041410008614100086941000800000000FA
:100020000000000000000000000000009117000820
:100030007141000800000000211800087541000807
:10004000E5160008E5160008E5160008E5160008A4
:10005000E5160008E51600089D5D0108BD5D010874
:10006000DD5D0108FD5D01081D5E010879410008A4
:10007000E516000885410008E516000891410008D2
:100080009D410008A9410008E5160008C14100088B
:10009000CD410008D9410008E54100083D5E010856
:1000A000E5160008E5160008E5160008E516000844
:1000B000E5160008E5160008E516000865260008A4
:1000C00071260008E5160008E5160008E516000888
:1000D000E5160008E5160008F1410008E5160008DD
:1000E000C15E0108E5160008E5160008E5160008DF
:1000F000D9230008FD410008E5160008B5410008B5
:10010000E5160008E5160008CD230008194200088E
:1001100025420008E5160008E5160008E516000867
:10012000E5160008E5160008E5160008E5160008C3
:10013000E51600080000000000000000E5160008B9
:10014000E5160008E5160008E51600087D260008FB
:10015000E5160008E5160008E5160008E516000893
:10016000E5160008E5160008E5160008E516000883
:10017000E5160008812400080000000000000000CF
:08018000E5160008E516000871
:1001C000844641EA000313F003036DD1403A41D362
:1001D00051F8043B40F8043B51F8043B40F8043B21
:1001E00051F8043B40F8043B51F8043B40F8043B11
:1001F00051F8043B40F8043B51F8043B40F8043B01
:1002000051F8043B40F8043B51F8043B40F8043BF0
:1002100051F8043B40F8043B51F8043B40F8043BE0
:1002200051F8043B40F8043B51F8043B40F8043BD0
:1002300051F8043B40F8043B51F8043B40F8043BC0
:1002400051F8043B40F8043B51F8043B40F8043BB0
:10025000403ABDD2303211D351F8043B40F8043B50
:1002600051F8043B40F8043B51F8043B40F8043B90
:1002700051F8043B40F8043B103AEDD20C3205D360
:1002800051F8043B40F8043B043AF9D2043208D058
:10029000D2071CBF11F8013B00F8013B01D30B88CA
:1002A00003806046704700BF082A13D38B078DD0A8
:1002B00010F003038AD0C3F10403D21ADB071CBF7A
:1002C00011F8013B00F8013B80D331F8023B20F8E4
:1002D000023B7BE7043AD9D3013A11F8013B00F81D
:1002E000013BF9D20B7803704B7843708B788370A5
:1002F00060467047000000000000000000000000A1
:1003000030B490F800F020F007016FF0000C10F00E
:10031000070491F820F040F048804FF000046FF09F
:100320000700D1E9002391F840F000F1080082FABB
:100330004CF2A4FA8CF283FA4CF3A2FA8CF34BBB86
:10034000D1E9022382FA4CF200F10800A4FA8CF2FF
:1003500083FA4CF3A2FA8CF3E3B9D1E9042382FACD
:100360004CF200F10800A4FA8CF283FA4CF3A2FAE2
:100370008CF37BB9D1E9062301F1200182FA4CF21A
:1003800000F10800A4FA8CF283FA4CF3A2FA8CF381
:10039000002BC6D0002A04BF04301A4612BAB2FAA3
:1003A00082F200EBD20030BC7047D1E9002304F0A8
:1003B0000305C4F100004FEAC50514F0040F91F8DD
:1003C00040F00CFA05F562EA05021CBF63EA05037A
:1003D00062464FF00004AAE70000000000000000A1
:1003E00002780B78012A28BF9A4240F0D8806DE944
:1003F000044540EA0104CDE902676FF0000C4FEAC2
:1004000044721AB380EA010414F0070F6BD100F0B4
:10041000070420F0070004F0030521F007014FEA6C
:10042000C505F0E8042314F0040FF1E804670CFAA2
:1004300005F462EA040266EA04060BD063EA0403E8
:10044000624667EA0407664604E000BFF0E804235A
:10045000F1E8046782FA4CF582EA0604A4FA8CF407
:100460006CBB83FA4CF583EA0705A5FA8CF595B9C0
:1004700050E9022351E9026782FA4CF582EA060448
:10048000A4FA8CF483FA4CF583EA0705A5FA8CF5F7
:100490002543DBD09CB92DBAB5FA85F424F00704C6
:1004A00027FA04F1DDE9026723FA04F303F0FF0001
:1004B00001F0FF01FDE80445A0EB0100704724BAFC
:1004C000B4FA84F424F0070426FA04F1DDE90267A3
:1004D00022FA04F202F0FF0001F0FF01FDE80445FA
:1004E000A0EB0100704714F0030F3CD110F003049F
:1004F00028D150F8082B51F8083B82FA4CF582EAD3
:100500000305A5FA8CF55DB950F8042C51F8043CAC
:1005100082FA4CF582EA0305A5FA8CF5002DE8D0A5
:100520002DBAB5FA85F424F0070423FA04F122FA6F
:1005300004F202F0FF0001F0FF01FDE80445A0EB2A
:10054000010070474FEAC40420F0030050F8082B64
:1005500021F0030151F8083B0CFA04F462EA0402AA
:1005600063EA0403C9E710F003041DD0A1EB040102
:1005700020F00300E40750F8042B06D012D28B7849
:100580005FFAA2F4E41A06D12BB1CB785FFAB2F489
:10059000E41A00D133B920465DF8104B7047A2EB46
:1005A0000300704701F1040150F8042BCC0721F03F
:1005B000030151F8043B48D824D222F07F4482FA48
:1005C0004CF594EA1325A5FA8CF50AD165B951F8D2
:1005D000043B84EA0204B4EB036F0ED150F8042B01
:1005E000EBE74FEA132355E035F07F454DD108780E
:1005F000FDE80445C0F1000070474FEA126203F0C5
:10060000FF0347E002EA1C4482FA4CF594EA1345E2
:10061000A5FA8CF50AD165B951F8043B84EA0204C5
:10062000B4EB034F0CD150F8042BEBE74FEA134324
:1006300030E015EA1C4528D10B884FEA124229E028
:100640004FEA124203EA1C4324E002F0FF0482FA5C
:100650004CF594EA1365A5FA8CF50AD165B951F801
:10066000043B84EA0204B4EB032F09D150F8042BB5
:10067000EBE74FEA13630DE015F0FF0F05D10B68B0
:100680004FEA122223F07F4304E04FF00000FDE820
:100690000445704712BA1BBA82FA4CF482EA03048A
:1006A000A4FA8CF5B5FA85F402FA04F203FA04F31D
:1006B0004FEA1260FDE80445A0EB1360704700BFED
:1006C00001F0FF01102A2BDB10F0070F08D010F803
:1006D000013B013A8B422DD010F0070F42B3F6D107
:1006E000F0B441EA012141EA014122F007047FF020
:1006F00000070023F0E80256083C85EA010586EA77
:10070000010685FA47F5A3FA87F586FA47F6A5FAB2
:1007100087F68EB9EED1F0BC01F0FF0102F00702BE
:1007200032B110F8013B013A83EA010313B1F8D169
:100730000020704701387047002D06BF354603384A
:10074000073815F0010F07D1013015F4807F02BF83
:10075000013015F4C03F0130F0BC0138704700BFD4
:1007600081F0004102E000BF83F0004330B54FEA62
:1007700041044FEA430594EA050F08BF90EA020FCF
:100780001FBF54EA000C55EA020C7FEA645C7FEA62
:10079000655C00F0E2804FEA5454D4EB5555B8BF85
:1007A0006D420CDD2C4480EA020281EA030382EAF6
:1007B000000083EA010180EA020281EA0303362D88
:1007C00088BF30BD11F0004F4FEA01314FF4801C5B
:1007D0004CEA113102D0404261EB410113F0004F6D
:1007E0004FEA03334CEA133302D0524263EB430324
:1007F00094EA050F00F0A780A4F10104D5F1200EC2
:100800000DDB02FA0EFC22FA05F2801841F100011C
:1008100003FA0EF2801843FA05F359410EE0A5F1F0
:1008200020050EF1200E012A03FA0EFC28BF4CF021
:10083000020C43FA05F3C01851EBE37101F00045D7
:1008400007D54FF0000EDCF1000C7EEB00006EEBE4
:100850000101B1F5801F1BD3B1F5001F0CD349086E
:100860005FEA30004FEA3C0C04F101044FEA4452C5
:1008700012F5800F80F09A80BCF1004F08BF5FEA4C
:10088000500C50F1000041EB045141EA050130BD2C
:100890005FEA4C0C404141EB0101013C28BFB1F53E
:1008A000801FE9D291F0000F04BF01460020B1FA89
:1008B00081F308BF2033A3F10B03B3F120020CDA5C
:1008C0000C3208DD02F1140CC2F10C0201FA0CF03A
:1008D00021FA02F10CE002F11402D8BFC2F1200C9F
:1008E00001FA02F120FA0CFCDCBF41EA0C01904055
:1008F000E41AA2BF01EB0451294330BD6FEA04049E
:100900001F3C1CDA0C340EDC04F11404C4F1200288
:1009100020FA04F001FA02F340EA030021FA04F39A
:1009200045EA030130BDC4F10C04C4F1200220FAF1
:1009300002F001FA04F340EA0300294630BD21FA2F
:1009400004F0294630BD94F0000F83F4801306BFF5
:1009500081F480110134013D4EE77FEA645C18BFE9
:100960007FEA655C29D094EA050F08BF90EA020F80
:1009700005D054EA000C04BF1946104630BD91EA78
:10098000030F1EBF0021002030BD5FEA545C05D17B
:100990004000494128BF41F0004130BD14F58004BA
:1009A0003CBF01F5801130BD01F0004545F0FE412E
:1009B00041F470014FF0000030BD7FEA645C1ABF63
:1009C000194610467FEA655C1CBF0B46024650EA9A
:1009D000013406BF52EA033591EA030F41F40021C6
:1009E00030BD00BF90F0000F04BF0021704730B54C
:1009F0004FF4806404F132044FF000054FF0000121
:100A000050E700BF90F0000F04BF0021704730B5E1
:100A10004FF4806404F1320410F0004548BF4042B6
:100A20004FF000013EE700BF42004FEAE2014FEA0B
:100A300031014FEA02701FBF12F07F4393F07F4FE6
:100A400081F06051704732F07F4208BF704793F0E9
:100A50007F4F04BF41F40021704730B54FF46074FC
:100A600001F0004521F000411CE700BF50EA0102FF
:100A700008BF704730B54FF000050AE050EA0102A8
:100A800008BF704730B511F0004502D5404261EB18
:100A900041014FF4806404F132045FEA915C3FF459
:100AA000D8AE4FF003025FEADC0C18BF03325FEAF6
:100AB000DC0C18BF033202EBDC02C2F1200300FAA7
:100AC00003FC20FA02F001FA03FE40EA0E0021FACC
:100AD00002F11444BDE600BF70B54FF0FF0C4CF4BA
:100AE000E06C1CEA11541DBF1CEA135594EA0C0F6C
:100AF00095EA0C0F00F0DEF82C4481EA030621EAA7
:100B00004C5123EA4C5350EA013518BF52EA0335E1
:100B100041F4801143F4801338D0A0FB02CE4FF093
:100B20000005E1FB02E506F00042E0FB03E54FF0C3
:100B30000006E1FB03569CF0000F18BF4EF0010EBB
:100B4000A4F1FF04B6F5007F64F5407404D25FEAB7
:100B50004E0E6D4146EB060642EAC62141EA55516A
:100B60004FEAC52040EA5E504FEACE2EB4F1FD0CAC
:100B700088BFBCF5E06F1ED8BEF1004F08BF5FEA2A
:100B8000500E50F1000041EB045170BD06F00046DC
:100B900046EA010140EA020081EA0301B4EB5C0489
:100BA000C2BFD4EB0C0541EA045170BD41F4801181
:100BB0004FF0000E013C00F3AB8014F1360FDEBFA6
:100BC000002001F0004170BDC4F10004203C35DA82
:100BD0000C341BDC04F11404C4F1200500FA05F305
:100BE00020FA04F001FA05F240EA020001F00042A6
:100BF00021F0004110EBD37021FA04F642EB06011C
:100C00005EEA430E08BF20EAD37070BDC4F10C0445
:100C1000C4F1200500FA04F320FA05F001FA04F209
:100C200040EA020001F0004110EBD37041F10001F5
:100C30005EEA430E08BF20EAD37070BDC4F1200500
:100C400000FA05F24EEA020E20FA04F301FA05F268
:100C500043EA020321FA04F001F0004121FA04F210
:100C600020EA020000EBD3705EEA430E08BF20EAE0
:100C7000D37070BD94F0000F0FD101F0004640001A
:100C800041EB010111F4801F08BF013CF7D041EA9C
:100C9000060195F0000F18BF704703F000465200A0
:100CA00043EB030313F4801F08BF013DF7D043EA71
:100CB0000603704794EA0C0F0CEA135518BF95EA27
:100CC0000C0F0CD050EA410618BF52EA4306D1D1AE
:100CD00081EA030101F000414FF0000070BD50EACD
:100CE000410606BF1046194652EA430619D094EA57
:100CF0000C0F02D150EA013613D195EA0C0F05D141
:100D000052EA03361CBF104619460AD181EA030194
:100D100001F0004141F0FE4141F470014FF000004C
:100D200070BD41F0FE4141F4780170BD70B54FF0E7
:100D3000FF0C4CF4E06C1CEA11541DBF1CEA135567
:100D400094EA0C0F95EA0C0F00F0A7F8A4EB050449
:100D500081EA030E52EA03354FEA013100F0888040
:100D60004FEA03334FF0805545EA131343EA126309
:100D70004FEA022245EA111545EA10654FEA0026BE
:100D80000EF000419D4208BF964244F1FD0404F577
:100D9000407402D25B084FEA3202B61A65EB0305D3
:100DA0005B084FEA32024FF480104FF4002CB6EB90
:100DB000020E75EB030E22BFB61A754640EA0C0010
:100DC0005B084FEA3202B6EB020E75EB030E22BF50
:100DD000B61A754640EA5C005B084FEA3202B6EB91
:100DE000020E75EB030E22BFB61A754640EA9C0050
:100DF0005B084FEA3202B6EB020E75EB030E22BF20
:100E0000B61A754640EADC0055EA060E18D04FEADD
:100E1000051545EA16754FEA06164FEAC30343EA7D
:100E200052734FEAC2025FEA1C1CC0D111F4801F4A
:100E30000BD141EA00014FF000004FF0004CB6E743
:100E400011F4801F04BF01430020B4F1FD0C88BFE2
:100E5000BCF5E06F3FF6AFAEB5EB030C04BFB6EBED
:100E6000020C5FEA500C50F1000041EB045170BDE0
:100E70000EF0004E4EEA113114EB5C04C2BFD4EB0D
:100E80000C0541EA045170BD41F480114FF0000E91
:100E9000013C90E645EA060E8DE60CEA135594EA0D
:100EA0000C0F08BF95EA0C0F3FF43BAF94EA0C0F10
:100EB0000AD150EA01347FF434AF95EA0C0F7FF485
:100EC00025AF104619462CE795EA0C0F06D152EAD9
:100ED00003353FF4FDAE1046194622E750EA4106BD
:100EE00018BF52EA43067FF4C5AE50EA41047FF4CE
:100EF0000DAF52EA43057FF4EBAE12E74FF0FF3C33
:100F000006E000BF4FF0010C02E000BF4FF0010C03
:100F10004DF804CD4FEA410C7FEA6C5C4FEA430C7C
:100F200018BF7FEA6C5C1BD001B050EA410C0CBFCB
:100F300052EA430C91EA030F02BF90EA020F00202D
:100F4000704710F1000F91EA030F58BF994208BF94
:100F500090422CBFD8176FEAE37040F00100704751
:100F60004FEA410C7FEA6C5C02D150EA013C07D1A8
:100F70004FEA430C7FEA6C5CD6D152EA033CD3D0F3
:100F80005DF8040B704700BF8446104662468C46ED
:100F90001946634600E000BF01B5FFF7B7FF002820
:100FA00048BF10F1000F01BD4DF808EDFFF7F4FF49
:100FB0000CBF012000205DF808FB00BF4DF808EDD4
:100FC000FFF7EAFF34BF012000205DF808FB00BFF7
:100FD0004DF808EDFFF7E0FF94BF012000205DF819
:100FE00008FB00BF4DF808EDFFF7CEFF94BF0120CE
:100FF00000205DF808FB00BF4DF808EDFFF7C4FFC7
:1010000034BF012000205DF808FB00BF4FEA410C0F
:101010007FEA6C5C02D150EA013C0AD14FEA430CF2
:101020007FEA6C5C02D152EA033C02D14FF000002F
:1010300070474FF0010070474FEA410212F500126D
:1010400015D211D56FF47873B3EB625212D94FEA0F
:10105000C12343F0004343EA505311F0004F23FAF9
:1010600002F018BF404270474FF00000704750EA4E
:10107000013005D111F0004008BF6FF0004070470B
:101080004FF00000704700BF4A0011D212F5001265
:1010900011D20DD56FF47873B3EB62520ED44FEAD0
:1010A000C12343F0004343EA505323FA02F0704750
:1010B0004FF00000704750EA013002D14FF0FF308E
:1010C00070474FF0000070474FEA4102B2F1E04331
:1010D00024BFB3F5001CDCF1FE5C0DD901F0004C1F
:1010E0004FEAC0024CEA5070B2F1004F40EB83006F
:1010F00008BF20F00100704711F0804F21D113F19B
:101100003872BCBF01F00040704741F480114FEAD3
:101110005252C2F11802C2F1200C10FA0CF320FA5C
:1011200002F018BF40F001004FEAC1234FEAD32379
:1011300003FA0CFC40EA0C0023FA02F34FEA4303E3
:10114000CCE77FEA625307D150EA01331EBF4FF06C
:10115000FE4040F44000704701F0004040F0FE4087
:1011600040F40000704700BF80F0004002E000BF84
:1011700081F0004142001FBF5FEA410392EA030F82
:101180007FEA226C7FEA236C6AD04FEA1262D2EBCC
:101190001363C1BFD218414048404140B8BF5B42D1
:1011A000192B88BF704710F0004F40F4000020F06A
:1011B0007F4018BF404211F0004F41F4000121F080
:1011C0007F4118BF494292EA030F3FD0A2F10102CA
:1011D00041FA03FC10EB0C00C3F1200301FA03F108
:1011E00000F0004302D5494260EB4000B0F5000F2B
:1011F00013D3B0F1807F06D340084FEA310102F1EA
:101200000102FE2A51D2B1F1004F40EBC25008BF9B
:1012100020F0010040EA03007047490040EB000065
:10122000013A28BFB0F5000FEDD2B0FA80FCACF166
:10123000080CB2EB0C0200FA0CF0AABF00EBC25093
:1012400052421843BCBFD0401843704792F0000F81
:1012500081F4000106BF80F400000132013BB5E7D4
:101260004FEA41037FEA226C18BF7FEA236C21D04A
:1012700092EA030F04D092F0000F08BF08467047AF
:1012800090EA010F1CBF0020704712F07F4F04D17D
:10129000400028BF40F00040704712F100723CBF90
:1012A00000F50000704700F0004343F0FE4040F4BA
:1012B000000070477FEA226216BF08467FEA236378
:1012C0000146420206BF5FEA412390EA010F40F463
:1012D000800070474FF0000304E000BF10F00043AF
:1012E00048BF40425FEA000C08BF704743F0964396
:1012F00001464FF000001CE050EA010208BF7047B1
:101300004FF000030AE000BF50EA010208BF704737
:1013100011F0004302D5404261EB41015FEA010C4C
:1013200002BF84460146002043F0B64308BFA3F144
:101330008053A3F50003BCFA8CF2083AA3EBC25326
:1013400010DB01FA02FC634400FA02FCC2F1200245
:10135000BCF1004F20FA02F243EB020008BF20F07C
:101360000100704702F1200201FA02FCC2F12002E2
:1013700050EA4C0021FA02F243EB020008BF20EAD7
:10138000DC7070477BB972B90029BEBF00204FF0F6
:10139000004106E008BF00281CBF6FF000414FF07D
:1013A000FF3000F02DB9ADF1080C6DE904CE002935
:1013B00009DB002B1ADB3CF0B9FCDDF804E0DDE9C9
:1013C000022304B07047404261EB4101002B1BDB5C
:1013D0003CF0ACFCDDF804E0DDE9022304B040425F
:1013E00061EB4101524263EB43037047524263EBAE
:1013F00043033CF09BFCDDF804E0DDE9022304B08C
:10140000404261EB41017047524263EB43033CF0C1
:101410008DFCDDF804E0DDE9022304B0524263EB09
:101420004303704753B94AB9002908BF00281CBFBD
:101430004FF0FF314FF0FF3000F0E2B8ADF1080C93
:101440006DE904CE3CF072FCDDF804E0DDE9022336
:1014500004B0704700F1340191E838009C46A6467C
:101460004CF8045D90E8FF0FE54600BD90EC210BC1
:10147000704700BF80EC210B704700BF90EC200B41
:10148000704700BF80EC200B704700BFD0EC200BF2
:10149000704700BFC0EC200B704700BFF0EC0201AA
:1014A000F0EC0211F0EC0221F0EC0231F0EC024120
:1014B000F0EC0251F0EC0261F0EC0271F0EC028110
:1014C000F0EC0291F0EC02A1F0EC02B1F0EC02C100
:1014D000F0EC02D1F0EC02E1F0EC02F1704700BF59
:1014E000E0EC0201E0EC0211E0EC0221E0EC023160
:1014F000E0EC0241E0EC0251E0EC0261E0EC027150
:10150000E0EC0281E0EC0291E0EC02A1E0EC02B13F
:10151000E0EC02C1E0EC02D1E0EC02E1E0EC02F12F
:10152000704700BFB0FC0181B0FC0191B0FC01A18B
:10153000B0FC01B1704700BFA0FC0181A0FC01918B
:10154000A0FC01A1A0FC01B1704700BFEC4600B5B2
:101550002DE900502DE9FF1F4FF000032DE90C008D
:1015600001A93CF09DFEDDF840E012B0704700BFDD
:10157000EC4600B52DE900502DE9FF1F4FF00003A8
:101580002DE90C0001A93CF0C7FEDDF840E012B0E7
:10159000704700BFEC4600B52DE900502DE9FF1F54
:1015A0004FF000032DE90C0001A93CF0D7FEDDF857
:1015B00040E012B0704700BFEC4600B52DE9005086
:1015C0002DE9FF1F4FF000032DE90C0001AB3CF0AB
:1015D0009BFEDDF840E012B0704700BFEC4600B55E
:1015E0002DE900502DE9FF1F4FF000032DE90C00FD
:1015F00001AA3CF013FFDDF840E012B0704700BFD5
:10160000704700BF0348044B834202D0034B03B131
:1016100018477047C40C0020C40C002000000000D4
:101620000548064B1B1AD90F01EBA301491002D044
:10163000034B03B118477047C40C0020C40C0020B2
:101640000000000010B5064C237843B9FFF7DAFF1D
:10165000044B13B10448AFF300800123237010BD85
:10166000C80C0020000000006CEE030808B5054B14
:101670001BB105490548AFF30080BDE80840FFF7FE
:10168000CFBF00BF00000000CC0C00206CEE0308B0
:10169000DFF838D0002103E00D4B5B584350043194
:1016A0000C480D4B42189A42F6D30C4A02E0002334
:1016B00042F8043B0A4B9A42F9D302F01FFE13F0A2
:1016C000FBF833F09FFA13F053F970470000022043
:1016D00094B8050800000020C40C0020C80C0020AD
:1016E000CCF90020FEE7000008480068006880F39D
:1016F00008884FF0000080F3148862B661B6BFF32B
:101700004F8FBFF36F8F00DF00BF000008ED00E0D8
:10171000DFF80C00016841F47001016070470000BF
:1017200088ED00E00E4B1B6882B00022013301926D
:1017300008D04FF0500383F31188BFF36F8FBFF3CE
:101740004F8FFEE74FF0500383F31188BFF36F8F85
:10175000BFF34F8F019B002BFCD002B0704700BF3E
:101760001402002010B44FF08073074C40F8043C82
:1017700021F001016FF0020340E9034140E9093221
:101780005DF8044B4438704725170008000000003E
:10179000074B19680868B0E8F04F80F30988BFF379
:1017A0006F8F4FF0000080F311887047AFF3008017
:1017B00020A000204FF0500383F31188BFF36F8FF8
:1017C000BFF34F8F0B4A13680133012B136000D016
:1017D00070474FF0E023D3F8043DDBB2002BF7D085
:1017E0004FF0500383F31188BFF36F8FBFF34F8F18
:1017F000FEE700BF14020020084A136843B94FF007
:10180000500383F31188BFF36F8FBFF34F8FFEE751
:10181000013B13600BB983F3118870471402002059
:10182000EFF30980BFF36F8F154B1A681EF0100F8E
:1018300008BF20ED108A20E9F04F10602DE9090063
:101840004FF0500080F31188BFF34F8FBFF36F8FBD
:1018500009F0E0FA4FF0000080F3118809BC196824
:101860000868B0E8F04F1EF0100F08BFB0EC108A07
:1018700080F30988BFF36F8F704700BFAFF300801C
:1018800020A0002008B54FF0500383F31188BFF368
:101890006F8FBFF34F8F09F03FF928B14FF0E0236E
:1018A0004FF08052C3F8042D002383F3118808BD44
:1018B0004FF0E02200230649136193610B6805494C
:1018C000A1FB03139B090720013B53611061704783
:1018D000EC040020D34D62104FF0E0233D4AD3F8D2
:1018E000001D914241D0D3F8002D3B4B9A4233D09A
:1018F00030B53A4B3A4C1A783A4883B0FF21D2B20D
:10190000019219701B78DBB28DF803309DF803301B
:101910009DF8032003F05003072112062370016095
:1019200048BF06220FD59DF803305B00DBB28DF86F
:1019300003309DF803301B06114602F1FF32F2D44A
:1019400003291BD001604FF0500383F31188BFF3CC
:101950006F8FBFF34F8FFEE74FF0500383F3118873
:10196000BFF36F8FBFF34F8FFEE74FF0500383F34A
:101970001188BFF36F8FBFF34F8FFEE7019B174AAC
:101980004FF0E0244FF44071DBB201601370D4F8E3
:10199000203D43F47003C4F8203DD4F8203D43F0CB
:1019A0007043C4F8203DFFF783FF0F4B00251D60F7
:1019B000FFF7AEFED4F8343F43F04043C4F8343F61
:1019C000FFF792FE09F026FAFFF7ACFE284603B0B7
:1019D00030BD00BF71C20F4170C20F4100E400E092
:1019E000E80C0020E40C002014020020EFF3058333
:1019F0000F2B0ED91149124A5B5C12789A4208D912
:101A00004FF0500383F31188BFF36F8FBFF34F8FF5
:101A1000FEE74FF0E0230B4AD3F80C3D126803F4C5
:101A2000E063934208D94FF0500383F31188BFF36A
:101A30006F8FBFF34F8FFEE7704700BFF0E300E00A
:101A4000E80C0020E40C002001207047B6EE000AEC
:101A5000704700BFB6EE000A704700BF9FED010A55
:101A6000704700BF5E74513F9FED010A704700BF91
:101A70005E74513F90F82C00A0F10200B0FA80F0A3
:101A80004009704790F82800A0F10200B0FA80F0F9
:101A90004009704710B5254BDFED257A84460C468A
:101AA0000FCB84B0B4EEE70A0DF1100EF1EE10FA90
:101AB0000EE90F0033D5DFED1F7AB4EEE70AF1EE41
:101AC00010FA2FD5F3EE047AB4EEE70AF1EE10FA2D
:101AD00054BF0123002399002CB104AA02EB830315
:101AE00053F8103C2360BCF82430B3F5AA6F03D13F
:101AF000BCF826308B420FD0DCF81400ACF826106E
:101B00004FF4AA630022BCF81810ACF824308CF80B
:101B10002C2008B104F090FA012004B010BD0C2173
:101B20000323D9E708210223D6E700BF88EE030884
:101B30000000A0420000204290F82C302BB1C36975
:101B400023B11B69028C1A4200D07047002380F831
:101B50002C3070472DE9F04F074691B041F4004614
:101B60004FF0010A4FF47A7B27F8286FCDE90CABD0
:101B700000230B930A9700F10C092A4D0F9204469B
:101B800099E803000DF1200805F10C0E88E8030028
:101B9000BEE80F00EC46ACE80F009EE80F008CE8B2
:101BA0000F00A06895E80E0014F018FD20B900257C
:101BB000284611B0BDE8F08F50460BF0B7FB0A97EE
:101BC000CDF834B02685CDF830A099E8030004F1B3
:101BD0002A030B9305F10C074FF6FF7388E8030007
:101BE00063850FCF6E460FC697E80F0086E80F009B
:101BF00095E80E00A06814F0F1FC05460028D6D048
:101C000050460BF093FB638D4BF6EF629342CED0C0
:101C10000F9A002ACCD0C3F30A032846138011B0D0
:101C2000BDE8F08FDCF0030810B582B001AA0021F6
:101C30000446FFF78FFF88B10DF106024FF40061F3
:101C40002046FFF787FF48B1BDF80600BDF8043015
:101C5000000400F40000184302B010BD4FF0FF3044
:101C600002B010BD70B5C2F30A028EB01143012656
:101C70004FF47A72CDE90C6200F10C030185044641
:101C8000114D93E8030000230B9304F128030A93FA
:101C900005F10C0E08AB83E80300BEE80F00EC462C
:101CA000ACE80F009EE80F008CE80F0095E80E00EE
:101CB000A06814F093FC044610B130460BF036FBDC
:101CC00020460EB070BD00BFDCF0030890F82C3049
:101CD000022B00F0838010B50446406982B018B131
:101CE000218B002204F0A8F928200BF01FFB60696B
:101CF000002384F82C3018B1218B012204F09CF9C8
:101D0000142009F043FCA28C4FF480512046FFF7C9
:101D1000A9FF10B9002002B010BDA28C4FF4805171
:101D20002046FFF79FFF0028F4D0A28C4FF480518B
:101D30002046FFF797FF0028ECD0A28C4FF480518B
:101D40002046FFF78FFF0028E4D0A28C4FF480518B
:101D50002046FFF787FF0028DCD0E28C4FF4C0510B
:101D60002046FFF77FFF0028D4D064200BF0DEFA76
:101D700001234FF4805184F82C300DF106022046E7
:101D8000FFF7E8FE0028C5D0A28CBDF806309A42C5
:101D9000C0D10DF106024FF4C0512046FFF7DAFE24
:101DA0000028B7D0E28CBDF806309A42B2D1204666
:101DB000FFF73AFF0028ADD1EFF3108372B694F825
:101DC0002C20012A04BF022284F82C2083F31088DF
:101DD00094F82C00831E584258419CE7012070471C
:101DE000704700BF704700BF82B010B48BB001AC29
:101DF00084E80700019A0D931168029A1C460B684B
:101E000012686FF0010003400B60CB680340CB60A9
:101E10004B6943F001034B6108614C621368034056
:101E20001360D468039B04401B68D460546944F079
:101E3000010454610E9C106154621C6804401C60D3
:101E4000DC6804910440DC605C69059244F00104A4
:101E50005C610F9C18615C620C68106819680693DD
:101E600044F0010440F0010041F0010107940890A2
:101E70000991EFF3108372B6DDE90410DDE9062461
:101E80000C60DDE908410460116083F310880BB039
:101E90005DF8044B02B070470448054A036D1B68A7
:101EA000934200D170475030184700BF488D002042
:101EB000E51D00080448054A836B1B68934200D166
:101EC00070473830184700BFE88D0020E11D00083A
:101ED000494A136813F0040331D0F0B5474E336814
:101EE0002DED028B03F00603062B85B004D00020F5
:101EF00005B0BDEC028BF0BD414F3B6803F006031B
:101F0000062BF4D10546D06B0C460BF057FD3D482F
:101F1000FFF7B0FDA8B93C48FFF7ACFD002833D16E
:101F200035483649364A6FF0040404606FF02603E2
:101F300001200B60136005B0BDEC028BF0BD1846AC
:101F40007047F26B314968460DF038FC2F49FA6B47
:101F50009DED008A02A80DF031FC9DF80430002BA5
:101F6000D9D09DF80C30002BD5D09DED027A2B7B7B
:101F7000F1EE487A77EEC77A5BB3C5ED007A85ED6E
:101F8000018A85ED027AC6E71C4B2149DA6C684666
:101F90000DF014FC1A4B1E49DA6C9DED008A02A864
:101FA0000DF00CFC9DF80430002BB9D09DF80C30DE
:101FB000002BB5D09DED027A237BF1EE487A77EEC7
:101FC000C77A7BB1C4ED007A84ED018A84ED027A90
:101FD000A6E70123C5ED007A85ED018A85ED027A39
:101FE0002B7398E70123C4ED007A84ED018A84ED18
:101FF000027A237394E700BF0020014000210140D2
:1020000000220140888E0020588E0020E8890020A0
:10201000988B002010B53821044629F027FD204672
:1020200010BD00BF10B55021044629F01FFD204609
:1020300010BD00BF08B502F091FA01F0DDF9084AC1
:10204000084B1178FF2918BF1346DA78032A00D00D
:10205000FEE71A79062AFBD15B79382BF8D108BD47
:102060000078FF1F0000002070B582B002F06EF90A
:1020700001F074F901F0C8FD01F01AFE00F0DCFF78
:1020800001F0E2F800F0E6FD00F01CFE01F096FB26
:1020900001F062FE01F082F800F04EFE00F09CFEBE
:1020A00000220121062003F095F9062003F0CEF965
:1020B00000220121072003F08DF9072003F0C6F963
:1020C00000220121082003F085F9082003F0BEF961
:1020D00000220121092003F07DF9092003F0B6F95F
:1020E000002201210A2003F075F90A2003F0AEF95D
:1020F00000220121172003F06DF9172003F0A6F943
:1021000000220121282003F065F9282003F09EF920
:10211000002205214D2003F05DF94D2003F096F9D2
:10212000002211462C20554C03F054F92C2003F0CA
:102130008DF994F88931002B35D194F88A31002B30
:102140003CD194F89931002B43D194F898313BB1AC
:1021500094F88731072B00F08880012384F8CC3273
:10216000474B4848D96841F00101D960DC6844F028
:102170000204DC609C6844F080049C6000224FF400
:10218000805103F059FF28200BF0D0F801224FF4C2
:1021900080513C4803F050FF44F620600BF0C6F835
:1021A000012002B070BD384BD4F88C211B685A60F6
:1021B00001F0D6FB94F88A31002BC2D0334BD4F80F
:1021C00090211B685A6001F0EFFB94F89931002BC5
:1021D000BBD02F4D05F1180393E803006E46002392
:1021E00086E8030001221946304613F007FC05F18A
:1021F000200393E80300002386E803000122194628
:10220000304613F0FBFB05F1280393E8030000239D
:1022100086E8030001221946304613F0EFFB012047
:1022200009F0B4F9AB69AA8B23B11B691A4214BF38
:1022300001230023286AAA8C28B101690A4214BF2D
:10224000012000204000AA6AA98D32B11269114212
:1022500014BF0122002243EA820318430D4B40F0D1
:102260006800187002F0E6F86FE794F88831072BE1
:102270003FF476AF012384F8CC3271E7A8E0002068
:10228000002004E0000402406404002060040020F8
:10229000FC0C00207CF600202DE9F0438FB0EFF31A
:1022A000108472B6304F314E3A6830689368DFF868
:1022B000D0902F4D23F44013936081682D4A01EA9A
:1022C000090181602868816801EA090102F10C08AE
:1022D000816007CA0DF1080E8EE8070098E8070034
:1022E00005AB83E807009EE807000DF1200C8CE8A1
:1022F000070093E807000EAB03E907000EAA0346A8
:1023000012E903008DE803009CE80700FFF76CFD6D
:10231000396832688868184E2B6840F480108860ED
:102320009068304390609D68144835439D606FF01D
:10233000040500680D6015601D606FF002050D60FA
:1023400015601D606FF020050D6015606FF00102D3
:102350001D600261C36843F00103C36084F3108809
:102360000FB0BDE8F08300BFA8980020609800205F
:102370001898002098EE030800001010448F0020E9
:10238000FFFFCFCF034B834200D07047024814F0C9
:102390006DB900BF60950020BC8E0020034B8342C6
:1023A00000D07047024814F061B900BF609500206A
:1023B000BC8E0020034B834200D07047024814F0CB
:1023C00055B900BF60950020BC8E0020014811F077
:1023D000B3BB00BFF00C00201F4B20491B682048F6
:1023E0006FF0010210B51A610A680478C2F3001C8C
:1023F000644522D01B4C80F800C0236803F52453A9
:10240000043302F0100223604AB1174A40F2D66347
:10241000CB638B634B63D3639363536310BD1348E8
:10242000134B90F8E0221A70A0F5804012F00CFADD
:10243000104B4D22C3F8002E10BD0F484FF4002260
:1024400000230DF0DDF8BDE810400C484FF40022E9
:1024500000230DF0D5B800BF448F002000040140D8
:10246000E90C0020EC0C002000000140A8E0002056
:10247000C48E002000E100E0E8890020988B002055
:102480002DE9F04F8BB002AD06ACDFF8CC81002314
:1024900021462846C5E90133C4E90133D8F8006074
:1024A0000293EB600693E360FFF712FD002800F053
:1024B000AA80624B5B6C13F4004300F09D80604B7C
:1024C0005B6C13F4004300F090800DF1100999E863
:1024D00003008DE8030008AF95E80C005948A6F208
:1024E00056610DF0DDFA97E803008DE803005648C9
:1024F00094E80C0031460DF0D3FA3146534813F0FE
:1025000037F8534B534A596A490089B213689B07FD
:10251000FCD54F4BDFF844B15B6A9BF80000DFF855
:1025200040A15B009BB25A1A18B1CAE9C513CAF898
:102530001C23DAF82033934238BF1346214628463D
:10254000CAF82033FFF7C4FC002841D099E8030003
:102550008DE8030006F50A5195E80C0039482E3144
:102560000DF0BCFB97E803008DE8030006F5245549
:10257000043594E80C00344829460DF0AFFB06F50D
:10258000E941304836310DF015FC06F5F6412E488C
:102590000C310DF00FFCD8F800309D4209D02948CD
:1025A000102200230DF02CF82748102200230DF0F4
:1025B00027F89AF8E0321BB19BF8003083F0010352
:1025C00000228AF8E0328BF800200BB0BDE8F08FD3
:1025D0001C484FF0007200230DF012F81A484FF01B
:1025E000007200230DF00CF8B0E79DF82420F2B142
:1025F0000693C4E9013368E79DF8142082B1029381
:10260000C5E901335BE70F484FF0007200230CF07F
:10261000F7FF0D484FF0007200230CF0F1FF48E780
:1026200001230292C5E901228DF8143047E7012306
:102630000692C4E901228DF8243046E700000140EB
:1026400000040140E8890020988B0020A8A0002009
:10265000001C004000210140EC0C0020C48E002032
:10266000A8E00020014803F0C5BE00BF809E002006
:10267000014803F00DBE00BF809E0020014804F019
:102680001DBB00BFB09000202DE9F04FCD48CE4ECD
:10269000CE4DCF4CCF4A00239BB0C6E90003CE48B5
:1026A000E86002F11801E06000F58060C5E90021F2
:1026B000C4E90021E8614FF48042E0614FF400502A
:1026C0006B612B8385F82C3022826361238384F82D
:1026D0002C3028820423C14AC148AE600F21A66075
:1026E0002B8423840DF068FE0423BC4ABD481946A0
:1026F0000DF062FEBC4ABD49002029F033F9BC4808
:102700000DF082FEBB480DF07FFEDFF8E482B44F8F
:10271000B54AB949DFF84493002029F023F9CDE9FF
:1027200001789FEDB60AA94BB54900950622B54838
:102730000CF0AAFD383708F15002CDE900479FEDB3
:10274000AF0AA34BB0490292B048A34FDFF8108301
:1027500006220CF099FD4FF4007306961297ADF81F
:102760004C30ADF8643012AB93E803001022ADF8A2
:102770005C2004AD2022ADF854201897CDF850808D
:10278000CDF8588085E8030014AB93E8030002AC51
:1027900084E8030016AB93E803008DE803001AAB4E
:1027A00013E90C009A499B480DF0ECFE4023ADF86C
:1027B0003C308023ADF834304FF4004306960A973E
:1027C000ADF82C300AAA92E803001097ADF8443017
:1027D000CDF83080CDF8388085E803000CAB93E865
:1027E000030084E803000EAA92E8030010AB8A4DB0
:1027F0008A4C8B4F0CCB8DE803008A498A480DF038
:10280000C1FE00238949AB800122C5E90233C5E935
:102810000633AB822960AA712961AA754B4609F17A
:10282000800640221846002132F032F90346403338
:102830000222B34244608460C760826202638263A2
:10284000EFD1DFF820B27A4BDFF81CA2DFF81CE2F0
:102850009FED784ADFED784A9FED785ADFED785AA0
:102860009FED786ADFED787ADFF804C25A4640F2CD
:102870000310F3EE046A4FF48067576400244FF0AE
:102880007E56B0EE007A4FF07A575663166417659D
:10289000C2F800E01083C2ED076A82ED084AC2ED7B
:1028A000094A82ED0B5AC2ED0C5A82ED0E6AC2ED56
:1028B000127A82F83C40546582ED0A7A82ED137AEE
:1028C00043F8B46C43F8B06C43F8AC6C43F8986CC4
:1028D0005E4E43F8A46C43F8846C43F65011FF2617
:1028E00003F89C6C03F8906C0A44594E43F8806CD2
:1028F00001274FF480780226524523F8B84C43F85C
:10290000A0CC43ED257A43ED236A43ED226A03F818
:10291000A87C43F8784C03F8744C43ED1C7A43EDE3
:102920001B7A03F8684C43ED197A03F8604C43EDC9
:10293000177A03F8584C43ED157A03F8504C43EDE1
:10294000137A43ED127A43ED117A43ED107A43ED99
:102950000F7A43ED0E7A43ED0D7A43ED0C7A43ED99
:102960000B7A43ED0A7A43ED097A43ED087A43ED99
:10297000077A43ED067A03F8124C43ED047A43EDEF
:10298000037A43ED017A23F8148C43F8086C0B4466
:102990007FF471AF2F4B08952F4D0793CDE9029B24
:1029A000A3F12C0903230595CDF81890DFF854B056
:1029B00085ED017A85ED117A2C602C64DFF854A046
:1029C000009357E060950020BC8E0020888E002088
:1029D000588E0020B8F00308000802400CF10308EC
:1029E000E88D0020208E002010020020B51E000877
:1029F000488D0020988D0020991E0008FFFFF944A3
:102A000070900020E8890020448F0020988B0020DF
:102A1000F88F0020A88600208886002000007A44D5
:102A20000118CF3ABC8F002048880020B81D040848
:102A3000B84C0020ABAA2A3EABAAAA3E9A99993F6D
:102A40000000807F0AD7233C0000000000002041E6
:102A5000000020C1DC030020E812002008860020CE
:102A60000004024068130020088600200C1E0408A1
:102A7000000101014FF07C53CDF810B0CDF804A057
:102A80003A46AB60EB60AB64EB64214633464248A8
:102A90000BF00EF9414B03930BF5D87304930AF531
:102AA000D073CDE900633E4B08933E4B029309F18E
:102AB00084030793403509F1580305950693394679
:102AC0000823072238480BF0F3F8384B384A9A604D
:102AD00008209884A3F8440036481A6104259A61B6
:102AE0001A629A639862986518672022102032490A
:102AF0009F811C609C809E829D839D864FF4004434
:102B0000A3F8542098852D4AA3F84C002C4E2D4D47
:102B10002D489C874027A3F87440A3F864704FF4B5
:102B200000748027A3F87C80A3F85C401A631A64C1
:102B30009A641A651A669A669A67A3F86C70C3F865
:102B40008020C1E90065A3F8844088601BB0BDE81F
:102B5000F08F01231D4D5C1E04F038042C44AC4260
:102B60000FD129F001F90023194D5C1E04F0500427
:102B70002C44AC42F5D054F8503D1B682046984791
:102B8000F7E754F8383D1B6820469847E7E70123EC
:102B9000EAE70023DEE700BF880D0020B84C0020E4
:102BA000988600204886002038100020FC0C002069
:102BB0000000024000080240F00C00200004024027
:102BC000808F00200100020003000400E88D002037
:102BD000488D002030B5014689B000222D2002F03A
:102BE000F9FB2D2002F032FC0025164B02951A6CE1
:102BF000154C42F480721A641B6C03F4807301A9B3
:102C000003A80293029B04F079FF04F057FF0F4AD8
:102C10000F4921604300A2FB03239B0C40F2E732E3
:102C2000013B2046C4E903256360A56005F096FDDD
:102C300010B1012009B030BD204605F037FB09B0C6
:102C400030BD00BF00380240C88E002083DE1B4329
:102C50000020004010B5184818498CB001604FF6AC
:102C6000FF71C1600321002301240422039103A901
:102C7000C0E90133CDE90434CDE90632CDE90834A9
:102C8000CDE90A32036105F0D9FD50B900220023D5
:102C900009486946CDE9002305F0ACFF30B90CB016
:102CA00010BD0748D82100F00FFCEFE70448DF21F2
:102CB00000F00AFC0CB010BDF88F002000040040AA
:102CC0001CF1030810B5194819498CB001604FF682
:102CD000FF71C1600321002301240422039103A991
:102CE000C0E90133CDE90434CDE90632CDE9083439
:102CF000CDE90A32036105F0A1FD50B9002200239D
:102D00000A486946CDE9002305F074FF30B90CB0DC
:102D100010BD0848F92100F0D7FBEFE705484FF454
:102D2000807100F0D1FB0CB010BD00BFBC8F002043
:102D3000000800401CF1030800B52448244987B06E
:102D400000234FF0FF32C0E90013C0E902320361F3
:102D500005F058FD00BB002200231C486946CDE960
:102D6000002305F047FF58BB0A200122CDE90202EB
:102D7000002108220F230491144805930DEB020152
:102D800005F0E2FDB0B911480C2202A905F0DCFD06
:102D900040B907B05DF804FB0E4840F2111100F095
:102DA00093FBD8E70B484FF4937100F08DFB07B00D
:102DB0005DF804FB074840F2211100F085FBE2E7D3
:102DC00004484FF48C7100F07FFBCDE7808F00202A
:102DD000000C00401CF103080A480B4908B542F6F4
:102DE00003120023C0E90013C0E90232036105F0B9
:102DF000B5FC00B908BDBDE80840044840F27311B5
:102E000000F062BB088F0020001C00401CF103088A
:102E1000124A0368934282B012D0114A934201D001
:102E200002B070470F4B002201921A6C42F08002F0
:102E30001A641B6C03F080030193019B02B070477E
:102E4000084B002200925A6C42F001025A645B6CFB
:102E500003F001030093009B02B0704700000140A3
:102E6000001C0040003802400368B3F1804F82B07C
:102E700012D0114A934201D002B070470F4B00228A
:102E800001925A6C42F002025A645B6C03F0020336
:102E90000193019B02B0704703F50E3300220092AC
:102EA0001A6C42F001021A641B6C03F001030093D8
:102EB000009B02B0704700BF000401400038024090
:102EC000124A0368934282B012D0114A934201D051
:102ED00002B070470F4B002201921A6C42F00402BC
:102EE0001A641B6C03F004030193019B02B070474A
:102EF000084B002200921A6C42F002021A641B6C0A
:102F000003F002030093009B02B0704700040040EE
:102F100000080040003802400E4B02689A4200D080
:102F2000704700B583B003F50B3300220192196C92
:102F300041F0080119641B6C03F00803019301219F
:102F40003220019B02F046FA322003B05DF804EB18
:102F500002F07CBA000C0040D0B5324A03689342BC
:102F600086B007D0B3F1804F21D02F4A934232D0A0
:102F700006B0D0BD4FF46042022300260027012492
:102F800069462A480494CDE90023CDE9026702F09E
:102F90007FFE4FF4E0620223254804946946CDE9A0
:102FA0000267CDE9002302F073FE06B0D0BD4FF4F6
:102FB00040600221CDE9000100F18040012300269C
:102FC000002700F5FC306946CDE90267049302F062
:102FD0005FFE06B0D0BD0026002703248022022316
:102FE000694613480494CDE90023CDE9026702F055
:102FF0004FFE0322022369460C480494CDE90023C6
:10300000CDE9026702F044FE4FF4E0720223094862
:1030100004946946CDE90267CDE9002302F038FE49
:1030200006B0D0BD00000140000401400004024091
:10303000000002400008024010B55548554C60227F
:1030400096B0002340F6AC5182600222C0E90043F2
:10305000C0E90313426105F081FB00285DD14FF404
:1030600080534B48029302A905F0A2F9002840F0D2
:103070008580474805F0AAFB00287AD1444805F02E
:1030800089FB002870D12022002341486946CDE900
:10309000002305F0AFFD002861D1002000210022AF
:1030A000CDE90A0170233A480C9206A9CDE906320F
:1030B000CDE9082205F026FD00284BD13448042232
:1030C00006A905F01FFD00283FD13148082206A9B6
:1030D00005F018FD002833D100232D4806930C225B
:1030E00006A905F0E3FC30BB9FED277B4FF40060A1
:1030F0004FF48061CDE90E0100231422244814937B
:103100000EA98DED127BCDE9103205F099FD48B97D
:103110001F48FFF721FF16B010BD1F48532100F0D4
:10312000D3F99CE792211C4800F0CEF91848FFF72C
:1031300013FF16B010BD1848862100F0C5F9D3E77B
:103140001548802100F0C0F9C6E713487B2100F044
:10315000BBF9BAE71048762100F0B6F9AEE70E48A1
:103160006A2100F0B1F998E70B48632100F0ACF94F
:1031700089E709485E2100F0A7F97FE70648592151
:1031800000F0A2F975E700BF000000000020000079
:1031900070900020000001401CF1030810B5284881
:1031A0008AB000234FF0804460214FF48052C0E980
:1031B0000043C0E90212036105F008FB38BB00229E
:1031C00000231F486946CDE9002305F013FD88BBA5
:1031D00002227020002104920822CDE9020100237E
:1031E000174806930DEB020105F08CFCE8B941F29B
:1031F0000104002312480C2202A9CDE9034305F083
:1032000081FC48B90E48FFF7A7FE0AB010BD0D4873
:10321000A52100F059F9D2E7BC210A4800F054F981
:103220000748FFF799FE0AB010BD0648B52100F027
:103230004BF9DCE70348AC2100F046F9C8E700BFD2
:10324000349000201CF1030810B54148414C602225
:1032500092B0002340F6AC5182600222C0E90043E4
:10326000C0E90313426105F0B1FA002841D12022E0
:10327000002337486946CDE9002305F0BBFC002850
:1032800059D1002000210022CDE9060170233048E9
:10329000089202A9CDE90232CDE9042205F032FC00
:1032A000002842D12A48042202A905F02BFC00285C
:1032B00035D1082226480DEB020105F023FC40BB66
:1032C0009FED217B4FF400604FF48061CDE90A014E
:1032D000002314221E4810930AA98DED0E7BCDE920
:1032E0000C3205F0ADFC50B91948FFF735FE12B0AD
:1032F00010BD194840F2391100F0E6F8B7E74FF475
:10330000B171154800F0E0F81148FFF725FE12B042
:1033100010BD11484FF4AB7100F0D6F8D0E70E485D
:1033200040F2511100F0D0F8C3E70B484FF4A671FA
:1033300000F0CAF8B6E708484FF4A07100F0C4F8EE
:103340009FE700BFAFF300800000000000200000F6
:10335000448F0020000401401CF1030810B582B026
:103360000024244B0094196B41F400111963186B6D
:1033700000F40010009000980194186B40F4800055
:1033800018631B6B03F480032246042101930B2076
:10339000019B02F01FF80B2002F058F822460A2188
:1033A0000D2002F017F80D2002F050F822460A21F5
:1033B0000F2002F00FF80F2002F048F822460A21F1
:1033C000102002F007F8102002F040F822460A21EF
:1033D000112001F0FFFF112002F038F822460321EE
:1033E0002F2001F0F7FF2F2002B0BDE8104002F0BF
:1033F0002DB800BF0038024070B594B02A4A2B4B5C
:1034000000200190116C41F080511164126C02F0A7
:1034100080520192019A02901A6842F480421A6026
:103420001B689FED1F7B03F480430293012302245A
:10343000029A0D934FF480010425A822072308A8BF
:103440008DED087BCDE90E41CDE91052CDE9124357
:1034500004F0A8F800B1FEE74FF4A05205904FF435
:1034600080530F26052103A8CDE90364CDE9062387
:1034700004F084FA044600B1FEE704F019FB0C4B9B
:10348000A3FB0030800902F001F8284602F018F88A
:10349000224631464FF0FF3001F09CFF14B070BD62
:1034A00009000000000001000038024000700040E8
:1034B000D34D6210034B02689A4200D0704701F06E
:1034C00067B800BF00200040FEE700BF000000001A
:1034D0000368B3F1A04F00D0704700B59FED147B97
:1034E00089B04FF4C0500221CDE902010A2302A99C
:1034F000114806938DED047B02F0CAFB0F4B596B0C
:10350000002241F0800159630192586C40F48040E0
:1035100058645B6C03F48043062101934320019BB4
:1035200001F058FF432001F091FF09B05DF804FB62
:1035300000000000030000000000024000380240CC
:10354000F8B5D0F8EC5300F56F7605F2AA270446DB
:103550003146384608F020FE95F8AA3203F06003A1
:10356000402B03D195F8AB32502B06D0D4F8EC03A6
:103570003146BDE8F84008F07FBAD5F8B832B5F862
:10358000B0229B680121C5E9A51228463946984713
:10359000B5F8B03203B900B1F8BD2846BDE8F8402F
:1035A00008F066BEC1EBC10300EB8303D0F8EC0367
:1035B000D3F8042208F090BAC1EBC10300EB8303F7
:1035C000D0F8EC035A6C08F0BBBA00BFD0F8EC039B
:1035D00008F046BB10B5C16804460039D0F8EC03CA
:1035E00018BF012108F024FBD4F8EC03BDE810401B
:1035F00008F0F6BA10B50446D0F8EC0308F01CFB4E
:103600002268D2F8003E43F00103C2F8003E236A6C
:1036100023B1034A136943F00603136110BD00BFD1
:1036200000ED00E0D0F8EC0308F010BBD0F8EC039C
:1036300008F026BBD0F8EC0308F020BBD0F8EC0370
:1036400008F020BBD0F8EC0308F01EBB02780AB1EA
:1036500000207047194B10B5C3F8EC034FF0A0449D
:10366000C0F8C43206200221C3E900401846C3E96D
:103670000312C3E90521C3E90722C3E90B225A62F9
:1036800003F098FAA0B980210C4803F087FF40228C
:1036900000210A4803F05CFF40220121074803F0A3
:1036A00057FF40220321054803F052FF002010BDC0
:1036B000034840F25911FFF707FFE4E7B0900020FC
:1036C00030F1030808B5D0F8C40203F0E1FA18B1EC
:1036D00002280CBF0120032008BD00BF944608B596
:1036E0001A46D0F8C402634603F012FE18B102284D
:1036F0000CBF0120032008BD08B5D0F8C40203F0B8
:1037000049FE18B102280CBF0120032008BD00BFEC
:1037100008B5D0F8C40203F0C7FE18B102280CBFE8
:103720000120032008BD00BF08B5D0F8C40203F093
:10373000E9FE18B102280CBF0120032008BD00BF1C
:103740000A06D0F8C43206D4C1EBC10103EB8103F1
:1037500093F8FA01704701F07F01C1EBC10103EB5F
:10376000810393F83A00704708B5D0F8C40203F01B
:10377000BBFD18B102280CBF0120032008BD00BF0B
:1037800008B5D0F8C40203F067FE18B102280CBFD8
:103790000120032008BD00BF08B5D0F8C40203F023
:1037A00029FE18B102280CBF0120032008BD00BF6C
:1037B00008B5D0F8C40203F045FE08BD10B51148A5
:1037C000114C4FF482720023C0E900424FF40061B3
:1037D0000122C0E90231C0E904324FF4007418211B
:1037E0000A22C0E90641C0E90833C0E90A3204F000
:1037F000F3F900B910BDBDE8104004485221FFF7AD
:1038000063BE00BF60950020003C00404CF10308FF
:103810003A4B02689A4200D07047F0B587B003F582
:10382000FE33002700971A6C42F400421A641B6CA6
:1038300003F40043022100934FF4A0520126CDE986
:103840000211009B01920623044601A92C48CDE9F0
:1038500004634FF4006502F01BFA03962848294ED2
:10386000019501A902F014FA274B33604023C6E901
:103870000173E3684FF48062C6E9037263BB1D46BF
:103880001A460023C6E905521E4873624FF40032FF
:10389000C6E9073201F020FE58BB1C4DE3681C4905
:1038A000A66400224FF48060C5E90012C5E9022237
:1038B000B46328619BB919460022C5E90531134854
:1038C0006A624FF48033C5E9072301F005FE58B959
:1038D000E564AC6307B0F0BD4FF40052D1E74FF49C
:1038E00000634FF40051E7E70A48A021FFF7ECFD21
:1038F000EEE708488921FFF7E7FDCEE7003C0040EE
:103900000008024000950020B8600240A09400200A
:10391000106002404CF103080D4B02689A4200D03F
:1039200070470C4A136C10B523F4004304464FF45F
:10393000E0511364084802F0CDFAA06C01F060FE7B
:10394000E06C01F05DFEBDE81040332001F08CBD5D
:10395000003C004000380240000802400000000027
:103960009FED0B7B0C480D4908B50C220023C0E9E4
:10397000023380ED067B01600361426105F0EEFADF
:1039800000B908BDBDE8084005485121FFF79CBDBE
:10399000000000000000000078970020004C00406C
:1039A00060F10308000000009FED0B7B0C480D49FF
:1039B00008B50C220023C0E9023380ED067B0160CC
:1039C0000361426105F0CAFA00B908BDBDE80840CC
:1039D00005486421FFF778BD0000000000000000EA
:1039E000389700200044004060F1030870B5584A41
:1039F0000368934282B0044604D0564A93424BD0A7
:103A000002B070BD002302F5F6320093116C524EE5
:103A100041F400211164126C5049B36002F4002299
:103A200000924FF00062C6E9001200984FF48061E6
:103A30004FF480723046C6E90331C6E90533C6E962
:103A40000833F26101F048FD002872D1444D454A27
:103A50002A604FF00062002366636A6040214FF4E1
:103A600080622846C5E90213C5E90533C5E9073375
:103A7000B4632A616B6201F02FFD002854D12563E5
:103A800000220A213420AC6301F0A4FC342002B0EF
:103A9000BDE8704001F0DABC002302F5FA32019370
:103AA000116C314E41F400311164126C2F49B36036
:103AB00002F4003201924FF00062C6E90012019850
:103AC0004FF480614FF480723046C6E90331C6E995
:103AD0000533C6E90833F26101F0FEFC70BB244DEA
:103AE000244A2A604FF00062002366636A60402126
:103AF0004FF480622846C5E90213C5E90533C5E9DC
:103B00000733B4632A616B6201F0E6FCD8B9256320
:103B100000220A212620AC6301F05CFC262002B0C2
:103B2000BDE8704001F092BC13489421FFF7CCFC33
:103B3000A5E711488221FFF7C7FC87E70E48B621A9
:103B4000FFF7C2FCCBE70C48C821FFF7BDFCDEE75E
:103B5000004C004000440040D896002040600240E5
:103B6000789600207060024018960020886002401D
:103B7000B8950020A060024060F1030808B509680C
:103B800027F002FE002008BD08B5044B002218688B
:103B9000022107F0BFFD002008BD00BFD4E30020D4
:103BA00008B5044B00221868012107F0B3FD00207E
:103BB00008BD00BFD4E30020212806D14FF4E13036
:103BC0000022082308608A808B710020704700BFA4
:103BD0008C46BCF1400F014613460DD8094A812B93
:103BE000D2F8BC220CD0832B06D15C32127A2AB9CF
:103BF0000448624608F0CABC0320704701207047A1
:103C00004432F3E7F09A002030B52548254C4FF4B4
:103C100080318FB0C0E90041234C002301220025F0
:103C2000C0E90A458360036183610362C360C261C6
:103C30000363426100F0D0FC08BB06240125002389
:103C4000174802936946CDE9004500F03BFE08BBEA
:103C5000012206210023CDE905124FF480154FF40F
:103C600080340F48099205A9CDE90C45CDE90A3306
:103C70000793089300F0CEFE30B90FB030BD0B486B
:103C80005E21FFF721FCD8E708487821FFF71CFCEC
:103C90000FB030BD05486821FFF716FCD8E700BF1C
:103CA000A8980020002001400100000F78F10308CF
:103CB00030B52648264C4FF480318FB000230122C6
:103CC000C0E900414FF080554FF06064C0E90A45FB
:103CD0008360036183610362C360C2610363426105
:103CE00000F07AFC08BB0D2401250023174802933D
:103CF0006946CDE9004500F0E5FD08BB01220A2137
:103D00000023CDE905124FF480154FF480340F489D
:103D1000099205A9CDE90C45CDE90A33079308932B
:103D200000F078FE30B90FB030BD0A489221FFF79D
:103D3000CBFBD8E70748AC21FFF7C6FB0FB030BD7F
:103D400004489C21FFF7C0FBD8E700BF6098002023
:103D50000021014078F1030830B52648264C4FF485
:103D600080318FB000230122C0E900414FF080551F
:103D70004FF06064C0E90A458360036183610362B8
:103D8000C360C2610363426100F026FC08BB0C24DF
:103D900001250023174802936946CDE9004500F04C
:103DA00091FD08BB01220B210023CDE905124FF440
:103DB00080154FF480340F48099205A9CDE90C45D0
:103DC000CDE90A330793089300F024FE30B90FB011
:103DD00030BD0A48C621FFF777FBD8E70748E02146
:103DE000FFF772FB0FB030BD0448D021FFF76CFB2A
:103DF000D8E700BF189800200022014078F103089E
:103E000070B5454A036893428AB007D0434A93424B
:103E100040D0434A93425DD00AB070BD0026414B6A
:103E200001965A6C404D42F480725A645B6C06965F
:103E300003F4807301932F22032304A904463B4813
:103E4000CDE90423019B01F023FF702203233848AE
:103E5000069604A9CDE9042301F01AFF354A6E62E3
:103E60004FF48063C5E900262B614FF400624FF4E4
:103E70000053C5E9052328464FF48073C5E902665F
:103E8000C5E9073601F028FB00283AD1A563AC63E9
:103E90000AB070BD0024234B02945A6C234842F4AC
:103EA00000725A645B6C06949FED197B03F40073F7
:103EB000029304A98DED047B029B01F0E9FE7022C0
:103EC00003231B48069404A9CDE9042301F0E0FE76
:103ED0000AB070BD134B002403945A6C42F4806204
:103EE0005A645B6C06940F20032103F48063CDE9D0
:103EF000040103930D48039B04A901F0C9FE0AB015
:103F000070BD0D484FF48A71FFF7DEFABEE700BFBF
:103F10002F000000030000000020014000210140AC
:103F20000022014000380240B897002000080240FB
:103F3000000002401064024078F1030810B582B01E
:103F40000024224B00945A6C42F480425A645A6C0A
:103F500002F480420092009A01941A6C42F080525E
:103F60001A641B6C03F0805301930320019B01F042
:103F70001FFA224621466FF00B0001F02BFA224671
:103F800021466FF00A0001F025FA224621466FF023
:103F9000090001F01FFA224603216FF0040001F02E
:103FA00019FA224621466FF0030001F013FA224667
:103FB0000F216FF0010001F00DFA22460F214FF0A2
:103FC000FF3002B0BDE8104001F004BA00380240F2
:103FD000122301480B80704780040020042301480D
:103FE0000B8070477C04002010B5044C04480A463E
:103FF000214608F0E9F8204610BD00BFF0980020E7
:104000008CF1030810B5044C04480A46214608F018
:10401000DBF8204610BD00BFF0980020D0E600205D
:1040200010B5044C04480A46214608F0CDF8204655
:1040300010BD00BFF09800209CF1030810B5044C9F
:1040400004480A46214608F0BFF8204610BD00BFCC
:10405000F0980020B8F1030810B5044C04480A4653
:10406000214608F0B1F8204610BD00BFF0980020AE
:10407000C4F103080020EE2908B5108002D00629FB
:1040800005D008BD1346122204481A8008BD044911
:10409000044808F099F8024808BD00BFB0040020A9
:1040A000F0980020D4F10308704700BF10B41B4AF9
:1040B0001B49536C046823F440438FB053644B6C2A
:1040C000184A23F440434B640294D0E9014303941B
:1040D0000493D0E90434C16805910693D0E906132E
:1040E000079408910993936A0A93D2F888200E4B9B
:1040F0000B925B6B0C930A9BC3F340238DF8063045
:104100000A9B0122C3F300238DF807300D920D9B0B
:10411000002BFCD10FB05DF8044B7047000001404C
:104120000004014000ED00E000EF00E01EF0040F8D
:104130000CBFEFF30880EFF30980FFF7B7BF00BFB4
:104140000549064A4B6C23F440434B64536C23F4FB
:1041500040435364F6E700BF000001400004014003
:1041600008B5FFF7EDFF00BF08B5FFF7E9FF00BF97
:10417000704700BF07F038BB014801F013BB00BF18
:10418000A0940020014801F00DBB00BFD89600208C
:10419000014801F007BB00BF78960020014801F0FC
:1041A00001BB00BF18960020014801F0FBBA00BF18
:1041B000B8950020014801F0F5BA00BF0095002035
:1041C000014800F099BF00BFC4040020014800F07E
:1041D00093BF00BFC4040020014800F08DBF00BFA2
:1041E000C4040020014800F087BF00BFC4040020C1
:1041F000014805F03FB800BF3897002008B50448D3
:1042000004F0A0F9BDE80840024804F09BB900BFE3
:10421000448F0020C88E0020014803F03BBF00BF40
:1042200060950020014805F025B800BF7897002070
:1042300010B5094C09490022204607F0DDFB08496A
:10424000204607F0F1FB2046064908F097F9204682
:10425000BDE8104007F0FEBBF09A00209404002057
:104260006005002068040020224B02689A4200D0BA
:10427000704730B589B0002503F5EA3301951A6C13
:1042800042F000721A641B6C4FF44070022103F07C
:1042900000730924CDE902010193002202A9164806
:1042A00006940323CDE90423019B01F0F1FC2A4687
:1042B0002146132001F08EF8132001F0C7F82A469A
:1042C0002146142001F086F8142001F0BFF82A4698
:1042D0002146152001F07EF8152001F0B7F82A4696
:1042E0002146162001F076F8162001F0AFF809B04B
:1042F00030BD00BF00640040000402401049114B73
:10430000D1F8882042F4700210B4C1F888201A68ED
:104310000D4C002042F001021A6098601A6822F0E9
:10432000847222F480321A605C601A684FF0006474
:1043300022F480221A60D8608C605DF8044B7047CC
:1043400000ED00E00038024010300024F0B58DB0E0
:10435000344B354E354F002401941A6B42F0040261
:104360001A63196B01F00401019101990294196B10
:1043700041F080011963196B01F0800102910299EB
:104380000394196B012211431963196B11400391B6
:1043900003990494196B41F002011963196B01F040
:1043A0000201049104990594196B41F00801196305
:1043B0001B6B03F00803304605934FF4C041059B87
:1043C00001F03AFE224638464FF4805101F034FEA7
:1043D00001254FF4C04306A93046CDE90635CDE9A5
:1043E000084401F055FC48F21022304606A900238B
:1043F000CDE90623089401F04BFC4FF48053384676
:1044000006A90693CDE90754099401F041FC042262
:1044100000230748089506A9CDE9062301F038FCDA
:104420000DB0F0BD00380240000802400004024018
:10443000000C024038B50D4B0D4C0E4D00224100D2
:10444000C3E9005418464FF48044C3E90221C3E98C
:104450000442C3E906221A6201F0F2FD00B938BD38
:10446000BDE8384004484F21FFF72EB8809E002059
:10447000A086010000540040F0F10308304B0268B0
:104480009A4200D0704770B582B000232D4A019344
:10449000116C2D4E41F400111164126C2B49B36064
:1044A00002F4001201924FF00072C6E900120446B5
:1044B0004FF4806101984FF480723046C6E90331B1
:1044C000C6E90533C6E90833F26101F005F860BBBF
:1044D0001F4D204A2A604FF000720023A6636A60D5
:1044E00040214FF480622846C5E90213C5E905332F
:1044F000C5E90733B4632A616B6200F0EDFFC8B908
:104500006563002209211F20AC6300F063FF1F20B8
:1045100000F09CFF00220921202000F05BFF2020FA
:1045200002B0BDE8704000F091BF0B486E21FEF76D
:10453000CBFFCDE708488021FEF7C6FFE0E700BFCC
:104540000054004000380240209E002010600240CD
:10455000C09D0020A0600240F0F1030808B50B4B9D
:104560001A6842F400721A601A6842F480621A6093
:104570001A6842F480721A60032000F019FF0620C6
:10458000FEF728FBFFF7DAFC002008BD003C0240E4
:10459000034A044B11681B780B441360704700BF3B
:1045A000D49E0020F0040020014B1868704700BF23
:1045B000D49E002038B50446FFF7F6FF631C05467D
:1045C00002D0044B1B781C44FFF7EEFF401BA042B7
:1045D000FAD338BDF0040020002800F09C80036C62
:1045E00010B504463BB1236CDB060CD5002384F8E0
:1045F0003C30012010BD436480F83C30FFF700FCE4
:10460000236CDB06F2D4236C464A23F4885323F050
:10461000020343F0020323645168236821F440310C
:10462000516051686068014351605A682069A1680F
:1046300022F480725A605A6842EA00225A605A682C
:10464000E06822F040725A605A680A435A609A68D9
:10465000A16A22F400629A609A6802439A60324A20
:1046600091429A684FD022F07062E06A9A609A682C
:10467000114399609A6822F040529A609A68024306
:104680009A609A68A069216A22F002029A609A6888
:1046900042EA40029A605A6800293ED042F4006221
:1046A000616A5A605A6822F460425A605A68013955
:1046B00042EA41325A60DA6AE169206B22F4700200
:1046C000DA62DA6A013942EA0152DA629A686169A9
:1046D00022F400729A609A6842EA40229A609A68CC
:1046E00022F480629A609A68002042EA81229A60ED
:1046F0006064236C23F0030343F00103236400236D
:1047000084F83C3010BD22F070629A609A6822F002
:1047100040529A60B5E70120704722F400625A6067
:10472000C9E700BF002301400100000F70B5054636
:1047300090F83C0082B00023012801936BD02E68D2
:104740001346012285F83C20B268D40714D4B2681D
:1047500042F00102B260314A1068314AA2FB0020E7
:10476000800C00EB40000190019A2AB1019C013CB1
:10477000019401980028F9D1B268D0073BD5286C84
:1047800020F4E06020F0010040F48070286472683A
:10479000520505D52A6C22F4405242F480522A6414
:1047A0002A6CA86B12F480521CBF6A6C22F00602BD
:1047B0006A64002285F83C200A461A49C1631A49F6
:1047C00001641A49C1646FF022013160716841F0DF
:1047D00080617160B16841F48071B16006F14C0193
:1047E00000F046FF124B5B68DB0607D12B689A6826
:1047F00012F0405F0AD0002002B070BD0D4A2B6855
:104800009342F8D19A6812F0405FF4D19A6842F06E
:1048100080429A60EFE7022002B070BDEC040020F5
:1048200083DE1B433D4800089D480008AD48000852
:104830000023014000200140704700BF836B1A6CC9
:1048400012F0500F25D11A6C196842F4007210B59D
:104850001A648A6812F0405F17D19A69AAB9CA6AC5
:1048600012F4700F02D08A6850050ED44A6822F004
:1048700020024A601A6C22F480721A641A6CD20404
:1048800003D41A6C42F001021A641846FFF7D4FFF1
:1048900010BD9B6BDB6C1847704700BF08B5806B81
:1048A000FFF7FAFF08BD00BF704700BF806B08B577
:1048B00040230364436C43F004034364FFF7F4FFB5
:1048C00008BD00BF70B590F83C3082B00246012BA5
:1048D0004FF00000019000F09380012382F83C30FB
:1048E0000D6813688C68092DA8B228D81E6905EBDD
:1048F000450E4FF0070C0CFA0EFC26EA0C061E6162
:104900001E6904FA0EF434431C614C68062C04EB57
:1049100084012AD85C6B05394FF01F0C88400CFAD3
:1049200001F124EA01015963596B08435863364980
:104930008B422BD0002082F83C0002B070BD00EB0F
:10494000400CDE68ACF11E0C4FF0070E04FA0CF4BC
:104950000EFA0CFC26EA0C06DE60DE683443DC60EE
:104960004C68062C04EB8401D4D90C2C34D81C6B75
:1049700023391F26884006FA01F124EA0101196350
:10498000196B0843204918638B42D3D1122D30D0C4
:10499000A5F11003012BCDD81C494B68102D43F411
:1049A00000034B60C6D11A4B01F146711B6801F53B
:1049B0002E3101F28331A1FB03139B0C03EB830324
:1049C0005B000193019B002BB4D0019B013B019341
:1049D000019B002BF9D1ADE7DC6A41391F268840E5
:1049E00006FA01F124EA0101D962D96A0843D862C2
:1049F0009DE7D1F8043343F48003C1F8043399E709
:104A0000022002B070BD00BF002001400023014021
:104A1000EC04002090F83C30012B00F0BF80012313
:104A200070B580F83C300C6803688A68092C8446AD
:104A3000A0B25FD81D6904EB440E072606FA0EF6F5
:104A400025EA06051D611D6902FA0EF22A431A6164
:104A50009A6B0E694D6822F440129A639A6B06F1C4
:104A6000FF3E42EA0E529A63EA1C921BD2B29E6B40
:104A700002EB82024FF01F0E90400EFA02F226EA7D
:104A800002029A639A6B10439863CA69444882424F
:104A900064D0986820F470209860986802439A6007
:104AA0009A68086A22F440129A609A6802439A60EF
:104AB0008A69002A4DD05A6842F480625A604A6975
:104AC00042B35A6842F480525A60022DCA6828D014
:104AD000032D54D0012D4AD159696FF30B0159614F
:104AE00059690A435A612F4A934224D000208CF816
:104AF0003C0070BD00EB4005DE681E3D4FF0070E28
:104B0000AA400EFA05F526EA0505DD60DD682A43B0
:104B1000DA609DE75A6822F480525A60022DCA6812
:104B2000D6D199696FF30B01996199690A439A612A
:104B30001C4A9342DAD1122C29D0103C012CD5D832
:104B4000194A5368002043F4000353608CF83C007A
:104B500070BD5A6822F480625A60B0E79A6822F405
:104B600070229A609A6822F440129A60A0E7196A4B
:104B70006FF30B011962196A0A431A62B3E7D96924
:104B80006FF30B01D961D9690A43DA61ABE7D2F857
:104B9000043343F48003C2F80433A7E702207047CC
:104BA00001000F00002001400023014000287BD0BD
:104BB00038B590F820300446002B72D02268136874
:104BC00023F002031360FFF7EFFC054604E0FFF754
:104BD000EBFC401B0A285BD823685A689107F6D47F
:104BE0001A6842F001021A60FFF7DEFC054604E095
:104BF000FFF7DAFC401B0A284AD823685A68D20714
:104C0000F6D5227E012A1A680CBF42F0800222F0FB
:104C100080021A60627E012A1A680CBF42F04002CC
:104C200022F040021A60A27E012A1A680CBF42F0EC
:104C3000200222F020021A60E27E012A1A680CBFCC
:104C400022F0100242F010021A60227F012A1A6834
:104C50000CBF42F0080222F008021A60627F012AAB
:104C60001A680CBF42F0040222F004021A60D4E970
:104C70000220216902430A436069616802430139E5
:104C80000A4300200121DA61606284F8201038BDF7
:104C9000636A052243F40033636284F82020012014
:104CA00038BDFFF7E1FA89E70120704790F820202E
:104CB000012A0AD090F82020022A034605D0426A31
:104CC00042F4802201205A627047404BD3F8002200
:104CD0000120024330B4C3F80022D3F8002222F4AA
:104CE0007C52C3F80022D3F800224C6A42EA042224
:104CF000C3F800224A69D3F81C42904024EA000419
:104D0000C3F81C42CD69C443002D45D1D3F80C52E1
:104D10002540C3F80C52D200CD688B8802F1804246
:104D200002F5C84243EA0543C2F840328D680B8859
:104D300043EA0543C2F844328B69244A33BBD2F8B4
:104D400004322340C2F804320B69C3B91F4BD3F8B5
:104D500014221440C3F814420B6A012B05D11B4ADC
:104D6000D2F81C320343C2F81C32184AD2F800327F
:104D700023F00103002030BCC2F800327047134A10
:104D8000D2F814320343C2F81432E5E7D2F8043201
:104D90000343C2F80432D7E7012DCDD1D3F80C522A
:104DA0000543C3F80C52D2000D688B8802F1804293
:104DB00002F5C84243EA0543C2F840328D688B8948
:104DC00043EA0543C2F84432B6E700BF006400403E
:104DD00038B590F82030012B044605D0436A43F4DF
:104DE00000234362012038BD0268022380F820308E
:104DF000136823F001031360FFF7D6FB054604E0B8
:104E0000FFF7D2FB431B0A2B07D823685B6813F01C
:104E10000103F5D16362184638BD636A052243F485
:104E20000033636284F82020DCE700BF38B590F8D7
:104E30002030022B044605D0436A43F480134362BA
:104E4000012038BD0268136843F001031360FFF7C7
:104E5000ABFB054604E0FFF7A7FB431B0A2B0CD86E
:104E600023685A68D207F6D51A68012122F0020297
:104E70001A6084F82010002038BD636A052243F4CC
:104E80000033636284F82020DAE700BF30B490F882
:104E90002040012C0AD090F82040022C06D0436A12
:104EA00043F480234362012030BC70470468A56846
:104EB0006D0105D4A5682D0102D4A568ED0039D592
:104EC000A0680125C0F3016085401D608B6843B375
:104ED000CD682B434D6843EAC50300F118052D0149
:104EE000635104EB00130D69C3F88451097D012956
:104EF0004FEA001005D1D3F8841141F48071C3F852
:104F0000841104445168C4F88C111268C4F88821D3
:104F1000D3F8802142F00102002030BCC3F8802188
:104F20007047CB680D6843EA455500F118031B0133
:104F3000E550D6E7436A43F400134362B3E700BF8A
:104F400090F82030012B05D090F82030022B01D0B2
:104F500000207047036898689A689B681201C0F344
:104F6000806048BF0130DB00F3D50130704700BFDF
:104F700070B590F82040012C09D090F82040022C08
:104F800005D0436A43F480234362012070BD046866
:104F9000002959D1E568AE075BD004EB011C4FEA4C
:104FA000011EDCF8B05105F004059560002D5DD1BF
:104FB000DCF8B0516D0D1560DCF8B051C5F340055B
:104FC000D560DCF8B451DCF8B46105F00F0515616B
:104FD0007444DCF8B451C6F3072696612D0CD4F85E
:104FE000B86155611E7002687244D2F8B821120A85
:104FF0005A7002687244D2F8B821120C9A70026892
:105000007244D2F8B821120EDA7002687244D2F8F3
:10501000BC211A7102687244D2F8BC21120A5A717A
:1050200002687244D2F8BC21120C9A710268724470
:10503000D2F8BC21120EDA7181B90268D36843F04C
:105040002003D360002070BD0129A6D12569AD07DA
:10505000A3D1436A43F40013436296E70129F1D1D7
:105060000268136943F020031361EBE7DCF8B051E9
:10507000ED085560A0E700BF90F82030012B05D067
:1050800090F82030022B01D000207047036819B936
:10509000D86800F003007047186900F003007047FB
:1050A00090F82020012A034609D090F82020022AF7
:1050B00005D0426A42F4802201205A6270471A6881
:1050C00053690B4300205361704700BF90F82020C4
:1050D000012A034609D090F82020022A05D0426A0E
:1050E00042F4802201205A6270471A68536923EA09
:1050F00001030020536170472DE9F84F03685C6994
:10510000D3F804809F68D3F80CB0D3F81090D3F88C
:1051100018A014F0010605461FD0F90700F19B8086
:105120000026F9050BD52B684FF480729A60BA05FA
:1051300000F1DE807B0540F1D18046F40056F90392
:105140000BD52B684FF480329A60BA0300F1D480FB
:105150007B0340F1C88046F40046210702D51BF0CE
:10516000100F72D1620702D51BF0080F7ED1A30782
:1051700004D52B68DB689F0740F09880600602D555
:1051800019F0100F5BD1A10602D519F0080F74D1E8
:10519000E20603D52B681B699B077CD1A70302D5C8
:1051A00018F0100F7BD1E00302D518F0080F6BD177
:1051B000210440D518F0040F2B683AD0E20544BF13
:1051C0000AF001021643A70574D4610504F40062D5
:1051D0002BD51AF0040F28D046F00406002A77D009
:1051E0001AF0700A74D0BAF1400F00F0A88000F2F3
:1051F0008780BAF1200F00F0BD80BAF1300F00F0C7
:10520000B080BAF1100F40F095809A69042122F025
:1052100070029A6146F0080659606B6A334328466B
:105220006B6212F043FABDE8F88F12B11AF0700AFF
:10523000D9D104225A60002EEFD1BDE8F88F2B6837
:10524000102246F480661A619DE72B68102246F40E
:105250000076DA6086E701229A60BA0735D47B07C8
:1052600039D43E075BD54FF480565AE72B680822A5
:10527000DA60284612F006FA79E72B6808221A61EC
:10528000284612F00DFA83E72B6808225A60284658
:1052900012F00AFA8CE7284612F000FA7EE72B6833
:1052A00010225A60284612F0FDF97CE7284612F0D9
:1052B000DDF963E71AF0020F87D0600546F00206B9
:1052C00004F4006285D41AB18AE712F0A5F927E741
:1052D00004225A60A1E74FF4006622E7380525D57D
:1052E00046F480462BE738031CD546F4803634E775
:1052F000284612F09DF922E7284612F0A5F92CE77E
:10530000BAF1500F24D0BAF1600F13D19A69042179
:1053100022F070029A6146F4807659607DE712F0BF
:105320009FF9FDE6284612F09FF916E7284612F08D
:1053300099F904E79A6922F070029A6179E79A690B
:10534000042122F070029A6146F04006596064E739
:105350009A69042122F070029A6146F08006596031
:105360005BE79A69042122F070029A6146F02006F8
:10537000596052E79A69042122F070029A6146F05E
:105380001006596049E700BF406A704790F8202036
:10539000012A034609D090F82020022A05D0426A4B
:1053A00042F4802201205A62704700205862704700
:1053B0000749CA6803024FF6FF0003F4E0630240A6
:1053C000134343F0BF6343F40033CB60704700BF27
:1053D00000ED00E01B4BDB68C3F3022300B5C3F113
:1053E000070EBEF1040F03F1040C28BF4FF0040EAA
:1053F000BCF1060F1CD9A3F1030C4FF0FF3303FAE5
:105400000CF322EA03024FF0FF3303FA0EF321EA12
:10541000030303FA0CF313431B010028DBB20ADB7E
:1054200000F1604000F5614080F800335DF804FB56
:1054300000229446E7E7044A00F00F000244137686
:105440005DF804FB00ED00E0FCEC00E0002807DB69
:105450004109044A00F01F000123834042F8213033
:10546000704700BF00E100E000280CDB430906495B
:1054700000F01F0020330122824041F82320BFF3B7
:105480004F8FBFF36F8F704700E100E00138B0F13C
:10549000807F01D30120704710B44FF0E023074C08
:1054A00058614FF0F00C84F823C000220721104609
:1054B0009A615DF8044B1961704700BF00ED00E090
:1054C0004FF0E022042813690CBF43F0040323F0DB
:1054D00004031361704700BF38B50446FFF764F852
:1054E000002C6BD023680222002184F8341084F849
:1054F00035201A6822F0010205461A6005E0FFF720
:1055000053F8431B052B37D823681A68D107F6D404
:10551000D4E90120E16802430A43D4E90451A069B7
:105520002A430A43E1691D6802430A43314929407D
:10553000256A2A430A43616A042924D01A605A69F9
:1055400022F007021143D8B22B4A59611038A2FB4E
:105550000052120929496FF30903895CE1655F284C
:1055600088BF04333F228A40A36500209A6001234C
:10557000606584F8353038BD03232022626584F8E5
:105580003530184638BDD4E90B5129431143196011
:105590005969A26A21F00701114341F00401002D6D
:1055A000D1D068B9012A21D032F00202CBD1EA0170
:1055B000C9D540220123626584F83530012038BD09
:1055C000B0F5005F04D0022AF3D9032AEFD0BAE77E
:1055D000032AB8D801A050F822F000BFB355000844
:1055E000AF550008B3550008ED550008B5F1C07F70
:1055F000A9D1DEE73F8010F0ABAAAAAAC41804081C
:1056000000282FD090F83530022B0246D8B228D08F
:1056100013681549D8B2103830B4A1FB004109090C
:105620001C68124D24F001046D5C1C60002119609F
:1056300059609960D9601961212159615F286FF320
:10564000090388BF04333F200021A840D565936536
:105650009860516582F8341082F83510084630BCE5
:105660007047704701207047ABAAAAAAC418040863
:1056700070B490F83440856D012C0AD090F8354014
:105680004FF0010C644580F834C005D0002380F849
:105690003430022070BC7047022680F83560046800
:1056A00000264665266826F48026266063608368A7
:1056B000402B0EBFA260A160E260C26D08BFE16036
:1056C0003F239340AB602368026C43F016032360D2
:1056D000636943F0800363611AB1236843F00803F0
:1056E0002360236843F001030020236070BC7047EF
:1056F00070B50446866DFEF757FF94F83530022BDF
:1057000006D00023802284F834306265012070BD09
:1057100023681A6822F016021A605A6922F0800281
:105720005A61226C054632B31A6822F008021A60E8
:105730001A6822F001021A6005E0FEF735FF431BEC
:10574000052B0FD823681B6813F00103F5D1E16D19
:105750003F228A400121B26084F8343084F8351049
:10576000184670BD032020220023626584F834307F
:1057700084F8350070BDA26C002AD5D1D8E700BFEF
:1057800090F83530022B03D0802343650120704709
:105790000268052380F83530136823F001030020E8
:1057A00013607047F0B583B0674A876D16680023B1
:1057B0000193C36D3D6808229A402A42044603D0F3
:1057C00001680868400778D401229A402A4203D031
:1057D0002168496908066AD404229A402A4203D003
:1057E0002168096889075CD410229A402A4203D0B4
:1057F00021680868000741D420229A402A4214D028
:1058000021680868C00610D5BA6094F83520052ACA
:1058100063D00B6813F4802F0B687ED0190340F11E
:105820008980E36B0BB120469847636D23B3636DAA
:10583000DA071AD522684549052384F835301368FC
:10584000A1FB061623F00103B60A136002E01368F9
:10585000DB0704D5019B0133B3420193F7D9002242
:10586000012384F8342084F83530E36C23B12046DA
:1058700003B0BDE8F040184703B0F0BDBA600A6855
:1058800012F4802F0A6822D1D20503D40A6822F0CC
:1058900008020A60226C002AAED020469047E36DD1
:1058A000AAE7BA60626D42F0040262659CE7BA60E2
:1058B000626D42F0020262658EE7086820F0040023
:1058C0000860BA60626D42F0010262657CE7110314
:1058D000E0D5A26C002AE0D18EE70A6822F0160219
:1058E0000A604A6922F080024A61226C3AB30A686F
:1058F00022F008020A603F2202FA03F3216DBB6026
:105900000022012384F8342084F835300029B3D0F4
:10591000204603B0BDE8F040084713F4807380D1FF
:105920000A6822F010020A60012284F8343084F8F8
:10593000352076E7636C002B7FF475AF75E7A26CBA
:10594000002AD4D1D7E700BFEC040020B5814E1B5C
:105950001B4BDA68D10605D51A49CA6910200243E3
:10596000CA61D860164BDA68920606D51549CA692D
:10597000202042F00802CA61D860114BDA68500654
:1059800006D51049CA69402042F00402CA61D860B5
:105990000B4BDA68110606D50A49CA69802042F025
:1059A0000202CA61D860064BDA68920706D505493B
:1059B000CA69022042F02002CA61D860704700BF65
:1059C000003C0240D89E0020064B1A69002A01DBE9
:1059D000002070470449054A59605A601869C00F91
:1059E000704700BF003C024023016745AB89EFCD03
:1059F000034A136943F0004300201361704700BF5E
:105A0000003C0240014BD869704700BFD89E00207F
:105A1000144B70B500220446DA61FEF7C5FD124E44
:105A20000546F368D90305D5631C0FD10E4AD36828
:105A3000D803FCD40C4BDA68D20744BF0122DA60E9
:105A4000094BD86810F0F20008D170BD24B1FEF700
:105A5000ABFD401BA042E4D9032070BDFFF778FFE7
:105A6000012070BDD89E0020003C02402DE9F0418D
:105A70002F4D95F818C0BCF1010F30D080461C4660
:105A80004CF2503001230E4617462B76FFF7C0FF2D
:105A900018B100232B76BDE8F081264BB8F1000F3A
:105AA00020D0B8F1010F33D01A6922F440721A6184
:105AB000B8F1020F1A6922D042F440721A611A69D1
:105AC00042F001021A61376074604CF25030FFF707
:105AD0009FFF184A136923F001031361D9E70220DD
:105AE000BDE8F081196921F44071196119691961E2
:105AF0001969FAB241F0010119613270E5E742F427
:105B000000721A611A6942F001021A613760DCE71B
